:1000000054C09BC06DC06CC06BC06AC069C068C082
:1000100067C066C065C064C063C062C061C060C0C4
:100020005FC05EC05DC005010906A101050719E0BA
:1000300029E71500250175019508810295017508CC
:100040002565190029658100C0090222000101000F
:1000500080190904000001030000000921010100CA
:10006000012223000705810308000A120110010084
:10007000000008424231E10001010200011603457F
:10008000006100730079004C006F00670067006535
:1000900000720012036F0062006400650076002E9B
:1000A0000061007400040309040011241FBECFE5A1
:1000B000D2E0DEBFCDBF10E0A0E6B0E0E6EEFAE0B1
:1000C00002C005900D92A236B107D9F720E0A2E652
:1000D000B0E001C01D92AC39B207E1F771D201C5A1
:1000E0008FCFA82FB92F80E090E041E050EA6095D3
:1000F00030E009C02D9182279795879510F08427CD
:100100009527305EC8F36F5FA8F30895EADF8D93FB
:100110009D930895A6E088279927AA9569F00197ED
:10012000E1F3B099FCCFB09BFECF81E09927A6B355
:10013000019611F0A174D9F70895CF93CFB7CF935B
:10014000C395B09BE9F7B09B0BC0B09B09C0B09BB7
:1001500007C0B09B05C0B09B03C0B09B01C0D5C019
:100160000F92DF93C0917F00DD27CA57DF4F012E2A
:10017000B09B03C0DF910F90E6CF2F930F931F9397
:100180004F932FEF4F6F06B300FB20F95F933F9320
:1001900050E03BE065C016B30126502950FDC895DC
:1001A00056B3012700FB25F92F7306B3B1F0502792
:1001B000102710FB26F906B22230F0F000C016B36B
:1001C000012700FB27F90126502906B22430E8F563
:1001D0004F77206816B30000F6CF50274F7D20627E
:1001E00006B2102F000000C006B3002650291027C9
:1001F00010FB26F906B2E2CF4F7B06B3206400C0A5
:10020000DACF01265029117406B269F14E7F2160C0
:10021000012F16B328C0002650294D7F06B2226058
:10022000102F29C0012650294B7F06B22460012FD0
:100230002DC016B301265029477F2860000006B262
:100240002EC04F7E06B3206130C0422706B34993CB
:1002500000265029102706B24FEF10FB20F9297F06
:1002600016B379F2117459F10126502906B201270B
:1002700000FB21F9237F06B371F20026502931508B
:10028000D0F006B2102710FB22F9277E16B351F2E8
:1002900001265029012700FB06B223F92F7C49F2E1
:1002A000000006B3102710FB24F90026502906B2DF
:1002B0002F7939F270CF10E41ABF002719C03B50D4
:1002C0003195C31BD04010E41ABF0881033C09F1EB
:1002D0000B34F9F020917D001981110F1213EDCF2D
:1002E0004A81441F093651F10D3211F0013E29F7C0
:1002F000009384003F915F914F911F910F912F9137
:10030000DF910F90CAB7C6FD1BCFCF91CFBFCF9162
:10031000189520918400222369F310918200112303
:1003200079F534307AF13093820020937E00109179
:100330007F003BE0311B30937F0024C0009182009E
:100340000130F4F40AE54F7049F43091610034FD56
:100350001AC000936100C6E6D0E019C03091710068
:1003600034FD11C000937100C2E7D0E010C0052732
:1003700010E000C021C0052710E0C89508BB14C0DC
:100380003AE501C032ED032EC0E0D0E032E017B311
:100390001164C09A08B317BB51E420E84FEF20FF67
:1003A000052708BB279517951C3F28F700004552E5
:1003B000B0F720FF0527279508BB17951C3FB8F617
:1003C00029913A9561F70E7B10918300110F08BBBC
:1003D000C250D04011F010937D0010E41ABF0160AC
:1003E00017B31E7B402F4E7B54E05A95F1F708BBA4
:1003F00017BB48BB7FCF80E008950895813451F446
:1004000029B381E090E002C0880F991F6A95E2F756
:100410008223089526B381E090E002C0880F991FDF
:100420006A95E2F782230895DF92EF92FF920F938D
:100430001F93CF93DF93EC01142F613341F4DD80E0
:100440000E817C018AE0E80EF11C2B9607C0DF804C
:1004500008857C019CE0E90EF11C2D966D2D812F05
:10046000CDDFF70190818917E9F08CE190E10197E8
:10047000F1F700C000006D2D812FC0DFF7019081E2
:10048000891791F08083602F812FB8DF98818913BD
:1004900006C0602F812FB2DF98819817D1F388832F
:1004A00081E003C080E001C080E0DF91CF911F9127
:1004B0000F91FF90EF90DF900895DF92EF92FF92FF
:1004C0000F931F93CF93DF93C42F613359F4FC0133
:1004D000D581D6807C01FAE0EF0EF11C8C01055F1E
:1004E0001F4F0AC0FC01D781D0847C01FCE0EF0ED5
:1004F000F11C8C01035F1F4F6D2D8C2F7FDFF801E6
:100500009081891701F18CE190E10197F1F700C02A
:1005100000006D2D8C2F72DFF80190818917A9F0F2
:1005200080836D2F8C2F6ADFF7019081891307C0BC
:100530006D2F8C2F63DFF70190819817C9F3F701B6
:10054000808381E003C080E001C080E0DF91CF9133
:100550001F910F91FF90EF90DF9008951F93CF931D
:10056000DF93EC01162F6985812F48DF90E021E0B1
:1005700030E0098402C0220F331F0A94E2F7821789
:100580009307C9F480E990E50197F1F700C00000F6
:100590006985812F33DF41E050E0098402C0440FB8
:1005A000551F0A94E2F7282F30E081E042175307E5
:1005B00019F080E001C080E0DF91CF911F91089594
:1005C000CF93DF93CDB7DEB76C970FB6F894DEBF4D
:1005D0000FBECDBF86E981BF31E03A8722E02E838E
:1005E00093E09F8384E0888745E04987188E3C8BA1
:1005F0002D8B9E8B8F8BB89A84E1E2EBF1EF3197D4
:10060000F1F700C000008150C1F7B8985DD278942E
:1006100046B381E090E09C010E8002C0220F331FA0
:100620000A94E2F724232B8746B39C010F8002C073
:10063000220F331F0A94E2F724232C8746B39C0130
:10064000088402C0220F331F0A94E2F724232D8767
:1006500046B39C01098402C0220F331F0A94E2F7BB
:1006600024232E8749B39C010C8802C0220F331F1C
:100670000A94E2F72423298F49B39C010D8802C014
:10068000220F331F0A94E2F724232A8F49B39C01D7
:100690000E8802C0220F331F0A94E2F724232B8F07
:1006A00029B30F8802C0880F991F0A94E2F78223AA
:1006B0008C8F0F2EF1E7EF2EF0E0FF2EF02D11E0E2
:1006C00002E06894992492F80F2EF5E0AF2EF02DF9
:1006D0000F2EF7E0BF2EF02D0F2EF2E6CF2EF0E01A
:1006E000DF2EF02D42E461E3CE0101969DDE8130E4
:1006F00011F41A831B8242E461E3CE010196DDDE30
:10070000813011F41A821B8342E462E3CE01019628
:100710008BDE813011F41C831D8242E462E3CE0142
:100720000196CBDE813011F41C821D8362E4CE0180
:10073000019614DF813009F4198341E461E3CE01AD
:100740000F9672DE813011F4188B198A41E461E34F
:10075000CE010F96B2DE813011F4188A198B41E474
:1007600062E3CE010F9660DE813011F41A8B1B8A92
:1007700041E462E3CE010F96A0DE813011F41A8AC3
:100780001B8B61E4CE010F96E9DE813009F41F87EF
:1007900067D0F701808184FFA5CF8A81813021F461
:1007A0001A82902F892D02C090E080E02B812130A9
:1007B00019F41B82902F8A2D2C81213019F41C8270
:1007C000902F8B2D2D81213019F41D82902F88E0E0
:1007D0002981213019F41982902F86E0288921304F
:1007E00011F4188A892D2989213011F4198A8A2D4A
:1007F0002A89213011F41A8A8B2D2B89213011F48A
:100800001B8A88E02F85213011F41F8686E0F601CF
:1008100090838183602FC60101D064CFCF93C62F10
:100820002091710024FF07C0E1E7F0E0318128E862
:100830002327218303C02AE520937100E82FF92F95
:10084000A3E7B0E08C2F91919D938150E1F76C2F3D
:1008500083E790E05BDCCC5FC0937100CF9108959B
:10086000CF93DF938091820083500AF4B4C09091BB
:100870007E009D3209F0ADC0883009F0AAC0809199
:100880007F00CCE0D0E0C81BD109CA57DF4F83EC12
:10089000809366008AE580936100109265008881EC
:1008A000807619F0CE01A7DD8BC09A8110926F007F
:1008B0008981811106C0109270002FE630E082E03D
:1008C0007BC0853031F4909383002FE630E080E0E8
:1008D00073C0863009F050C08B81813041F48BE6C3
:1008E00090E0909381008093800082E141C082304B
:1008F00041F489E490E0909381008093800082E24B
:1009000037C08330F1F4911108C085EA90E09093EC
:1009100081008093800084E02BC0913041F483E912
:1009200090E0909381008093800082E121C092301A
:10093000E1F48DE790E0909381008093800086E160
:1009400017C0813241F48BE590E090938100809351
:10095000800089E00DC0823251F486E290E09093ED
:1009600081008093800083E203C080E001C080E0CA
:1009700090E49093650024C0883099F0893031F478
:10098000909385002FE630E080E016C08A3069F051
:100990008B3079F48BE4809372002FE630E080E0B6
:1009A0000BC025E830E081E007C02FE630E081E0B1
:1009B00003C02FE630E080E0309381002093800078
:1009C0009F81911104C09E81981708F4892F80930C
:1009D0006000109282008091610084FF4BC0809182
:1009E00060008F3F09F446C0C82F893008F0C8E086
:1009F0008C1B80936000E6E6F0E0908188E8892710
:100A00008083CC2309F457C020918000309181006D
:100A10008091650086FF10C0A7E6B0E0F9018C2F39
:100A200094919D9331968150D9F78FEF8C0F90E080
:100A30000196280F391F0EC0D901E7E6F0E08C2F90
:100A40009D9191938150E1F78FEF8C0F90E001968B
:100A5000280F391F30938100209380006C2F87E688
:100A600090E054DBCC5FCC3018F48FEF80936000C3
:100A7000C093610086B38174A9F493E186B3817455
:100A800091F49150D9F71092830010927D008091DB
:100A90006400813019F415C0B0DC01C0C1E0C0931E
:100AA00064000FC094E1C1E09111C0E08091640046
:100AB000C81739F0F1CF6C2F87E690E027DBCC5FC9
:100AC000D4CFDF91CF91089585B7836085BF8BB771
:100AD00080648BBFE1E7F0E08BE481838AE580836B
:060AE0000895F894FFCF19
:020AE600FF5AB5
:00000001FF
